:020000040800F2
:100000000028002065100008F50F0008FB0F00080D
:1000100001100008071000080D1000080000000083
:1000200000000000000000000000000013100008A5
:100030001F100008000000002B10000837100008F7
:10004000AD100008AD100008AD100008AD1000089C
:10005000AD100008AD100008AD100008AD1000088C
:10006000AD100008AD100008AD100008AD1000087C
:10007000AD100008AD100008AD100008AD1000086C
:10008000AD100008AD100008AD100008AD1000085C
:10009000AD100008AD100008AD100008AD1000084C
:1000A000AD100008AD100008AD100008AD1000083C
:1000B00045100008AD10000800000000AD10000859
:1000C000AD1000080000000000000000AD100008A6
:1000D00000000000AD100008AD1000080000000096
:1000E000AD100008AD100008AD10000800000000C1
:1000F0000000000000000000000000000000000000
:0C01000000000000000000005FF808F1A3
:10010C0010B5054C237833B9044B13B10448AFF345
:10011C0000800123237010BD2C0000200000000083
:10012C000427000808B5034B1BB103490348AFF380
:10013C00008008BD000000003000002004270008EB
:10014C0080B483B000AF786039607B68184A82FB5A
:10015C0003129210DB17D31A164A13607968144BEA
:10016C0083FB01239A10CB17D21A13469B0013441E
:10017C005B00CA1A0F4B5A603B680D4A82FB031294
:10018C009210DB17D31A0B4A93603968084B83FB28
:10019C0001239A10CB17D21A13469B0013445B0011
:1001AC00CA1A044BDA6000BF0C37BD4680BC7047DE
:1001BC00676666664C00002080B582B000AF786040
:1001CC0039607B681B68012B18D100224FF4207119
:1001DC001D4801F068FA01224FF4A0611A4801F0A1
:1001EC0062FA3B681A683B6808331B68194610466C
:1001FC0000F0DCFC7B6802221A601CE07B681B6848
:10020C00022B18D101224FF420710F4801F04BFA48
:10021C0000224FF4A0610C4801F045FA3B6804330E
:10022C001A683B680C331B681946104600F0BEFC7C
:10023C007B6801221A60054B1B68184600F000FE13
:10024C0000BF0837BD4680BD0008014004000020F7
:10025C0080B500AFA54B1B68032B00F23B8101A2BC
:10026C0052F823F081020008CF0200087103000845
:10027C0013040008002000F071FB0346012B40F032
:10028C002B819B4B1B689B4A13609B4B1B689B4AA7
:10029C0013609B4B1B689B4A13609B4B1B68184657
:1002AC0000F0BAFD01224FF4F061984801F0FBF91F
:1002BC008E4B01221A60964B1B680133944A1360D3
:1002CC000AE18C4B1B68924A126811461846FFF7DC
:1002DC0037FF904B1B68012B03D18F498F48FFF7D9
:1002EC006BFF01226621894801F0DDF900221821FB
:1002FC00864801F0D8F98A4B1B68012B14D17D4B31
:10030C001B68013B7B4A13607A4B1B68002B06D1A0
:10031C00764B02221A60764B1B68764A1360814B2F
:10032C001B68184600F078FD002000F017FB034610
:10033C00012B40F0D3806D4B04221A6001227E21E8
:10034C00724801F0B0F9774B1B68002B00DA0333CD
:10035C009B10184600F04CFD6D4B1B6801336C4A2A
:10036C001360BBE0654B1B68694A1268114618465E
:10037C00FFF7E6FE674B1B68012B03D16649674804
:10038C00FFF71AFF01226A21604801F08CF9002264
:10039C0014215E4801F087F9614B1B68012B14D1C5
:1003AC00564B1B68013B554A1360544B1B68002B82
:1003BC0006D14E4B03221A604F4B1B684F4A1360F9
:1003CC00584B1B68184600F027FD002000F0C6FAB9
:1003DC000346012B40F08480444B04221A60012216
:1003EC007E214A4801F05FF94E4B1B68002B00DA66
:1003FC0003339B10184600F0FBFC454B1B68013384
:10040C00434A13606CE03F4B1B68414A126811462B
:10041C001846FFF795FE3F4B1B68012B03D13E4955
:10042C003E48FFF7C9FE374B1A68334B1B689A429C
:10043C0009DD01223C21354801F035F90022422129
:10044C00324801F030F9364B1B68012B25D12D4B6E
:10045C001B68013B2B4A13602A4B1B68002B07D1EE
:10046C00224B01221A60264B1B68264A13600FE0B0
:10047C00244B1A68204B1B689A4209DC012240214C
:10048C00224801F010F900222221204801F00BF93A
:10049C00244B1B68184600F0BFFC002000F05EFAED
:1004AC000346012B1ED1114B04221A6001227E211E
:1004BC00164801F0F8F81B4B1B68002B00DA0333CD
:1004CC009B10184600F094FC114B1B680133104A2A
:1004DC00136007E000BF06E000BF04E000BF02E0CD
:1004EC0000BF00E000BF00BF80BD00BF480000207F
:1004FC000C0000205C000020100000206000002098
:10050C0014000020640000200800002000080140B6
:10051C00680000201C0000204C000020000000207F
:10052C00840000201800002080B582B000AF7860F5
:10053C003960334B5B78012B0CD13B681B68002B6B
:10054C0008D1304B1B68184600F08EFC3B6801222A
:10055C001A6021E0012000F001FA0346012B1BD1A7
:10056C007B681B685A1C7B681A607B681B68632B52
:10057C0002DD7B6863221A607B681B68224A126862
:10058C0011461846FFF7DCFD204B1B68012B03D1ED
:10059C001F492048FFF710FE194B5B78002B02D146
:1005AC003B6800221A601C4B1B68012B24D1144B96
:1005BC005B78012B20D17B681B685A1C7B681A6006
:1005CC007B681B68632B02DD7B6863221A607B6887
:1005DC001B680D4A126811461846FFF7B1FD0B4B0C
:1005EC001B68012B03D10A490A48FFF7E5FD054BAF
:1005FC001B68184600F038FC00BF0837BD4680BDAC
:10060C00A000002018000020680000201C00002022
:10061C004C000020000000209000002080B584B029
:10062C0000AFF860B9607A603B60324B1B78012BED
:10063C0007D1BB68002B04D12F4B1B68184600F068
:10064C0013FC2E4B1B68012B03D12A4B1B78012B5F
:10065C0005D0002000F082F90346012B15D17B68F0
:10066C001B685A1C7B681A607B681B68062B02DDB2
:10067C007B6803221A603B681B685A1C3B681A6033
:10068C001D4B1B68184600F0EFFB1A4B1B78002B18
:10069C0002D1BB6800221A603B681B68052B25D170
:1006AC00144B1B78002B1ED1FB68062B1BD17B68CF
:1006BC0003221A60124B1A68BB691A60114B1A6834
:1006CC00FB691A60104B1A683B6A1A600A4B1B686C
:1006DC00184600F0A1FB084B1B68DA0F13445B10A3
:1006EC00184600F0ADFB3B6801221A6000BF1037C2
:1006FC00BD4680BDA0000020180000209000002006
:10070C0014000020100000200C00002080B584B0E4
:10071C0000AFF860B9607A603B60022000F01EF90F
:10072C000346012B18D17968B868FFF709FD0C490D
:10073C000C48FFF741FDFB68062B03D13B68BA68F8
:10074C001A6009E0FB68052B03D1BB69BA681A6013
:10075C0002E0FB69BA681A6000BF1037BD4680BD65
:10076C004C0000200000002080B584B004AF6B4B1F
:10077C001B68062B08D0062B00F3CC80042B00F052
:10078C008780052B42D0C5E001223621644800F059
:10079C008AFF644B1B68012B0CD14821604800F088
:1007AC009AFF614B1B68002B00DA03339B10184631
:1007BC0000F01EFB5D4B1B685D4A12681146184623
:1007CC00FFF7BEFC5B4B1B68012B03D15A495B48FE
:1007DC00FFF7F2FC5A4B02935A4B01935A4B00937E
:1007EC00534B4E4A59490620FFF718FF58494F48BA
:1007FC00FFF79AFE4E4B1A68564B0193564B0093DB
:10080C004A4B0C210620FFF781FF84E001225A217C
:10081C00434800F048FF434B1B68012B0CD12421AB
:10082C003F4800F058FF404B1B68002B00DA0333A5
:10083C009B10184600F0DCFA474B1B683C4A1268C8
:10084C0011461846FFF77CFC3A4B1B68012B03D171
:10085C0039493A48FFF7B0FC394B0293394B0193B5
:10086C00394B0093324B2D4A38490520FFF7D6FE01
:10087C0037493948FFF758FE2D4B1A68354B019311
:10088C00354B0093294B03210520FFF73FFF42E036
:10089C0001226C21224800F006FF224B1B68012B21
:1008AC000CD112211E4800F016FF1F4B1B68002BA9
:1008BC0000DA03339B10184600F09AFA254B1B689C
:1008CC001B4A126811461846FFF73AFC194B1B6875
:1008DC00012B03D118491948FFF76EFC184B0293F2
:1008EC00184B0193184B0093114B0C4A17490420D9
:1008FC00FFF794FE16491748FFF716FE0C4B1A68C3
:10090C00144B0193144B0093084B0F210420FFF759
:10091C00FDFE00E000BF00BFBD4680BD48000020CA
:10092C000008014098000020180000200C00002056
:10093C00680000201C0000204C000020000000205B
:10094C005C00002060000020640000206C0000208F
:10095C0070000020140000201000002080B483B030
:10096C0000AF7860094A7B6852F82330012B06D11E
:10097C00064A7B68002142F82310012300E0002383
:10098C0018460C37BD4680BC704700BFA400002041
:10099C0090B583B000AF0023FB7188E0FA79FB7946
:1009AC004749895C474AD154FA79FB794649895CB5
:1009BC00434AD154FB79022B1CD0022B25DC002B93
:1009CC0002D0012B0BD020E0FC794FF400613F48A2
:1009DC0000F052FE03461A463B4B1A5516E0FC79C2
:1009EC004FF48051394800F047FE03461A46364B07
:1009FC001A550BE0FC794FF40051344800F03CFEE2
:100A0C0003461A46304B1A5500E000BFFB792E4ABC
:100A1C00D25CFB792A49CB5C9A421CD1FB792A4ADD
:100A2C00D25CFB792749CB5C9A4214D1FB79284ADA
:100A3C00D35C012B09D1FB79234AD35C002B04D165
:100A4C00FB79244A012142F82310FA79FB791E49DB
:100A5C00895C1F4AD154FB791D4AD35C002B15D1FC
:100A6C00FB791D4A32F81330B3F5967F09D2FB7926
:100A7C00194A32F81320013291B2174A22F8131096
:100A8C0012E0FB79154A0121D1540DE0FB79114A92
:100A9C00002142F82310FB790F4A002122F8131091
:100AAC00FB790E4A0021D154FB790133FB71FB79A0
:100ABC00022B7FF673AF00BF00BF0C37BD4690BD55
:100ACC007C000020800000207800002000080140FD
:100ADC0074000020A4000020B0000020A000002022
:100AEC0080B586B000AF7860144A07F1080307CAD6
:100AFC0003C31A8000237B6118E001227B6902FA90
:100B0C0003F399B207F108027B6813441B781A4669
:100B1C007B6942FA03F3DBB203F00103DBB21A4642
:100B2C00074800F0C0FD7B6901337B617B69062BB4
:100B3C00E3DD00BF00BF1837BD4680BD1C27000891
:100B4C00000C014080B586B000AF7860154A07F103
:100B5C00080307CA03C31A8000237B6119E07B6971
:100B6C000733012202FA03F399B207F108027B68FA
:100B7C0013441B781A467B6942FA03F3DBB203F089
:100B8C000103DBB21A46084800F08DFD7B69013386
:100B9C007B617B69062BE2DD00BF00BF1837BD46C9
:100BAC0080BD00BF1C270008000C014080B582B03E
:100BBC0000AF786039607868FFF792FF3868FFF70C
:100BCC00C1FF00BF0837BD4680BD000080B500AF37
:100BDC0000F068FA00F00EF800F094F800F046F817
:100BEC00034801F0C9F9FFF733FBFFF7BDFDFAE746
:100BFC00B800002080B590B000AF07F11803282290
:100C0C000021184601F070FD3B1D00221A605A604D
:100C1C009A60DA601A610223BB610123BB62102364
:100C2C00FB6200237B6307F11803184600F06CFD90
:100C3C000346002B01D000F0D5F80F237B60002376
:100C4C00BB600023FB6000233B6100237B613B1DE9
:100C5C000021184600F0D8FF0346002B01D000F00D
:100C6C00C1F800BF4037BD4680BD000080B586B0DE
:100C7C0000AF07F1080300221A605A609A60DA602C
:100C8C003B4600221A605A601D4B4FF080421A609E
:100C9C001B4B41F63F725A60194B00229A60184B5D
:100CAC000922DA60164B00221A61154B00229A6158
:100CBC00134801F011F90346002B01D000F092F813
:100CCC004FF48053BB6007F1080319460C4801F040
:100CDC00A7FA0346002B01D000F084F800233B60F8
:100CEC0000237B603B461946054801F06FFC034628
:100CFC00002B01D000F076F800BF1837BD4680BD40
:100D0C00B800002080B586B000AF07F108030022C0
:100D1C001A605A609A60DA60294B9B69284A43F042
:100D2C0004039361264B9B6903F004037B607B688F
:100D3C00234B9B69224A43F008039361204B9B6928
:100D4C0003F008033B603B68012240F2FE711D4832
:100D5C0000F0A9FC002243F6FF711B4800F0A3FC35
:100D6C0040F2FE73BB600123FB6000233B61022356
:100D7C007B6107F108031946124800F003FB43F6A8
:100D8C00FF73BB600123FB6000233B6102237B618B
:100D9C0007F1080319460C4800F0F4FA4FF46053BD
:100DAC00BB600023FB6001233B6107F1080319467C
:100DBC00044800F0E7FA00BF1837BD4680BD00BFFD
:100DCC000010024000080140000C014080B582B0C8
:100DDC0000AF786000F05CF8FFF7DAFD00BF083771
:100DEC00BD4680BD80B400AF72B600BFFEE7000008
:100DFC0080B483B000AF7860054A7B681360054B04
:100E0C0000221A6000BF0C37BD4680BC704700BF83
:100E1C009C0000209800002080B483B000AF786064
:100E2C00054A7B681360054B00221A6000BF0C3723
:100E3C00BD4680BC704700BF8800002084000020A5
:100E4C0080B483B000AF7860054A7B681360054BB3
:100E5C0000221A6000BF0C37BD4680BC704700BF33
:100E6C008C0000201C00002080B483B000AF7860A0
:100E7C00054B00221A60054A7B68136000BF0C37D3
:100E8C00BD4680BC704700BF90000020940000203D
:100E9C0080B400AF214B1B68002B0BDD1F4B1B6874
:100EAC00013B1E4A13601D4B1B68002B02D11C4BCF
:100EBC0001221A601B4B1B68002B0BDD194B1B68A6
:100ECC00013B184A1360174B1B68002B02D1164BC1
:100EDC0001221A60154B1B68002B0BDD134B1B6892
:100EEC00013B124A1360114B1B68002B02D1104BB3
:100EFC0001221A600F4B1B68002B0BDD0D4B1B687E
:100F0C00013B0C4A13600B4B1B68002B02D10A4BA4
:100F1C0001221A6000BFBD4680BC704788000020CB
:100F2C00840000208C0000201C0000209400002075
:100F3C00900000209C0000209800002080B485B018
:100F4C0000AF154B9B69144A43F001039361124B9C
:100F5C009B6903F00103BB60BB680F4BDB690E4A56
:100F6C0043F08053D3610C4BDB6903F080537B60FF
:100F7C007B680A4B5B68FB60FB6823F0E063FB60FB
:100F8C00FB6843F08063FB60044AFB68536000BF5E
:100F9C001437BD4680BC7047001002400000014071
:100FAC0080B584B000AF78607B681B68B3F1804F6C
:100FBC0013D10C4BDB690B4A43F00103D361094B92
:100FCC00DB6903F00103FB60FB68002200211C209D
:100FDC0000F0A1F91C2000F0BAF900BF1037BD4693
:100FEC0080BD00BF0010024080B400AFFEE780B4AB
:100FFC0000AFFEE780B400AFFEE780B400AFFEE7C1
:10100C0080B400AFFEE780B400AF00BFBD4680BC2B
:10101C00704780B400AF00BFBD4680BC704780B441
:10102C0000AF00BFBD4680BC704780B500AF00F07C
:10103C007FF800BF80BD000080B500AF024800F013
:10104C00E7FF00BF80BD00BFB800002080B400AF38
:10105C0000BFBD4680BC70470C480D490D4A0023AB
:10106C0002E0D458C4500433C4188C42F9D30A4A51
:10107C000A4C002301E013600432A242FBD3FFF7B9
:10108C00E5FF01F00DFBFFF7A1FD7047000000200C
:10109C002C000020502700082C0000200401002008
:1010AC00FEE7000080B500AF084B1B68074A43F011
:1010BC0010031360032000F023F90F2000F008F850
:1010CC00FFF73CFF0023184680BD00BF0020024004
:1010DC0080B582B000AF7860124B1A68124B1B7847
:1010EC0019464FF47A73B3FBF1F3B2FBF3F31846E2
:1010FC0000F03BF90346002B01D001230EE07B6886
:10110C000F2B0AD8002279684FF0FF3000F003F95A
:10111C00064A7B681360002300E001231846083759
:10112C00BD4680BD200000202800002024000020A7
:10113C0080B400AF054B1B781A46054B1B68134453
:10114C00034A136000BFBD4680BC704728000020D6
:10115C000001002080B400AF024B1B681846BD464E
:10116C0080BC70470001002080B485B000AF78606F
:10117C007B6803F00703FB600C4BDB68BB60BA6851
:10118C004FF6FF031340BB60FB681A02BB681343A6
:10119C0043F0BF6343F40033BB60044ABB68D360C5
:1011AC0000BF1437BD4680BC704700BF00ED00E0A7
:1011BC0080B400AF044BDB681B0A03F0070318462E
:1011CC00BD4680BC704700BF00ED00E080B483B02A
:1011DC0000AF0346FB7197F90730002B0BDBFB7953
:1011EC0003F01F02064997F907305B09012000FA4A
:1011FC0002F241F8232000BF0C37BD4680BC70477B
:10120C0000E100E080B483B000AF03463960FB71AD
:10121C0097F90730002B0ADB3B68DAB20C4997F9D7
:10122C0007301201D2B20B4483F800230AE03B686A
:10123C00DAB20849FB7903F00F03043B1201D2B276
:10124C000B441A7600BF0C37BD4680BC704700BFFC
:10125C0000E100E000ED00E080B489B000AFF86080
:10126C00B9607A60FB6803F00703FB61FB69C3F1AB
:10127C000703042B28BF0423BB61FB690433062B33
:10128C0002D9FB69033B00E000237B614FF0FF3286
:10129C00BB6902FA03F3DA43BB681A407B699A40D4
:1012AC004FF0FF317B6901FA03F3D9437B680B40A4
:1012BC00134318462437BD4680BC704780B582B0B6
:1012CC0000AF78607B68013BB3F1807F01D30123D1
:1012DC000FE00A4A7B68013B53600F214FF0FF304F
:1012EC00FFF790FF054B00229A60044B07221A600F
:1012FC00002318460837BD4680BD00BF10E000E053
:10130C0080B582B000AF78607868FFF72DFF00BF22
:10131C000837BD4680BD80B586B000AF0346B960C6
:10132C007A60FB7300237B61FFF742FF78617A6878
:10133C00B9687869FFF790FF024697F90F301146AC
:10134C001846FFF75FFF00BF1837BD4680BD80B55C
:10135C0082B000AF0346FB7197F907301846FFF7D0
:10136C0035FF00BF0837BD4680BD80B582B000AFE9
:10137C0078607868FFF7A2FF034618460837BD4629
:10138C0080BD000080B48BB000AF78603960002362
:10139C007B6200233B6248E101227B6A02FA03F381
:1013AC00FB613B681B68FA691340BB61BA69FB6956
:1013BC009A4240F037813B685B68A34A93425ED007
:1013CC00A14A934275D8A14A934258D09F4A93425E
:1013DC006FD89F4A934252D09D4A934269D89D4AF6
:1013EC0093424CD09B4A934263D89B4A934246D03B
:1013FC00994A93425DD8122B2AD8122B59D801A2A4
:10140C0052F823F08B1400086514000877140008B8
:10141C00B9140008BF140008BF140008BF1400085A
:10142C00BF140008BF140008BF140008BF14000844
:10143C00BF140008BF140008BF140008BF14000834
:10144C00BF140008BF1400086D14000881140008B4
:10145C00824A934213D02CE03B68DB683B6229E064
:10146C003B68DB6804333B6224E03B68DB68083391
:10147C003B621FE03B68DB680C333B621AE03B6865
:10148C009B68002B02D104233B6213E03B689B68F2
:10149C00012B05D108233B627B68FA691A6109E0CC
:1014AC0008233B627B68FA695A6103E000233B62C4
:1014BC0000E000BFBB69FF2B01D87B6801E07B68B3
:1014CC0004337B61BB69FF2B02D87B6A9B0002E073
:1014DC007B6A083B9B003B617B691A680F213B6967
:1014EC0001FA03F3DB431A40396A3B6901FA03F34F
:1014FC001A437B691A603B685B6803F08053002BCE
:10150C0000F09080564B9B69554A43F00103936160
:10151C00534B9B6903F00103BB60BB68514A7B6A68
:10152C009B08023352F82330FB607B6A03F0030301
:10153C009B000F2202FA03F3DB43FA681340FB60B3
:10154C007B68494A93420DD07B68484A934207D046
:10155C007B68474A934201D1022304E0032302E053
:10156C00012300E000237A6A02F003029200934008
:10157C00FA681343FB603B497B6A9B080233FA68A9
:10158C0041F823203B685B6803F48033002B06D0C2
:10159C00384B1A683749BB6913430B6006E0354B6F
:1015AC001A68BB69DB43334913400B603B685B68CB
:1015BC0003F40033002B06D02E4B5A682D49BB691F
:1015CC0013434B6006E02B4B5A68BB69DB4329493C
:1015DC0013404B603B685B6803F48013002B06D010
:1015EC00244B9A682349BB6913438B6006E0214B5B
:1015FC009A68BB69DB431F4913408B603B685B688F
:10160C0003F40013002B06D01A4BDA681949BB6996
:10161C001343CB6006E0174BDA68BB69DB43154913
:10162C001340CB607B6A01337B623B681A687B6A30
:10163C0022FA03F3002B7FF4AFAE00BF00BF2C37B0
:10164C00BD4680BC704700BF000032100000311056
:10165C0000002210000021100000121000001110D8
:10166C00001002400000014000080140000C014045
:10167C00001001400004014080B485B000AF7860D8
:10168C000B467B807B689A687B881340002B02D0CA
:10169C000123FB7301E00023FB73FB7B184614371B
:1016AC00BD4680BC704780B483B000AF78600B46F9
:1016BC007B8013467B707B78002B03D07A887B6809
:1016CC001A6103E07B881A047B681A6100BF0C372F
:1016DC00BD4680BC704780B485B000AF78600B46C7
:1016EC007B807B68DB68FB607A88FB6813401A049C
:1016FC00FB68D9437B880B401A437B681A6100BF97
:10170C001437BD4680BC704780B586B000AF78609A
:10171C007B68002B01D101236CE27B681B6803F012
:10172C000103002B00F08780924B5B6803F00C03E5
:10173C00042B0CD08F4B5B6803F00C03082B12D1DD
:10174C008C4B5B6803F48033B3F5803F0BD1894B32
:10175C001B6803F40033002B6CD07B685B68002B98
:10176C0068D1012346E27B685B68B3F5803F06D104
:10177C00804B1B687F4A43F4803313602EE07B68F8
:10178C005B68002B0CD17B4B1B687A4A23F48033AB
:10179C001360784B1B68774A23F4802313601DE099
:1017AC007B685B68B3F5A02F0CD1724B1B68714A38
:1017BC0043F4802313606F4B1B686E4A43F48033F1
:1017CC0013600BE06B4B1B686A4A23F48033136085
:1017DC00684B1B68674A23F4802313607B685B6843
:1017EC00002B13D0FFF7B6FC386108E0FFF7B2FC12
:1017FC0002463B69D31A642B01D90323FAE15D4BF2
:10180C001B6803F40033002BF0D014E0FFF7A2FCAC
:10181C00386108E0FFF79EFC02463B69D31A642B43
:10182C0001D90323E6E1534B1B6803F40033002B6F
:10183C00F0D100E000BF7B681B6803F00203002BB3
:10184C0063D04C4B5B6803F00C03002B0BD0494B63
:10185C005B6803F00C03082B1CD1464B5B6803F44C
:10186C008033002B16D1434B1B6803F00203002B73
:10187C0005D07B681B69012B01D00123BAE13D4BDC
:10188C001B6823F0F8027B685B69DB003949134362
:10189C000B603AE07B681B69002B20D0364B012291
:1018AC001A60FFF757FC386108E0FFF753FC02465B
:1018BC003B69D31A022B01D903239BE12D4B1B68E7
:1018CC0003F00203002BF0D02A4B1B6823F0F80224
:1018DC007B685B69DB00274913430B6015E0264BE3
:1018EC0000221A60FFF736FC386108E0FFF732FC83
:1018FC0002463B69D31A022B01D903237AE11D4B13
:10190C001B6803F00203002BF0D17B681B6803F00B
:10191C000803002B3AD07B689B69002B19D0174B1E
:10192C0001221A60FFF716FC386108E0FFF712FC81
:10193C0002463B69D31A022B01D903235AE10D4B02
:10194C005B6A03F00203002BF0D0012000F0A6FA32
:10195C001CE00A4B00221A60FFF7FCFB38610FE019
:10196C00FFF7F8FB02463B69D31A022B08D9032375
:10197C0040E100BF0010024000004242800442429D
:10198C009E4B5B6A03F00203002BE9D17B681B685A
:10199C0003F00403002B00F0A6800023FB75974B8B
:1019AC00DB6903F08053002B0DD1944BDB69934A18
:1019BC0043F08053D361914BDB6903F08053BB60E0
:1019CC00BB680123FB758E4B1B6803F48073002BE3
:1019DC0018D18B4B1B688A4A43F480731360FFF752
:1019EC00B9FB386108E0FFF7B5FB02463B69D31A37
:1019FC00642B01D90323FDE0814B1B6803F4807336
:101A0C00002BF0D07B68DB68012B06D17B4B1B6A6B
:101A1C007A4A43F0010313622DE07B68DB68002BEC
:101A2C000CD1764B1B6A754A23F001031362734B7E
:101A3C001B6A724A23F0040313621CE07B68DB68A8
:101A4C00052B0CD16D4B1B6A6C4A43F004031362DB
:101A5C006A4B1B6A694A43F0010313620BE0674B44
:101A6C001B6A664A23F001031362644B1B6A634AC8
:101A7C0023F0040313627B68DB68002B15D0FFF79F
:101A8C0069FB38610AE0FFF765FB02463B69D31A34
:101A9C0041F28832934201D90323ABE0574B1B6AC6
:101AAC0003F00203002BEED014E0FFF753FB386178
:101ABC000AE0FFF74FFB02463B69D31A41F288322A
:101ACC00934201D9032395E04C4B1B6A03F00203AC
:101ADC00002BEED1FB7D012B05D1484BDB69474A2E
:101AEC0023F08053D3617B68DB69002B00F081808D
:101AFC00424B5B6803F00C03082B61D07B68DB69FD
:101B0C00022B46D13F4B00221A60FFF723FB3861B2
:101B1C0008E0FFF71FFB02463B69D31A022B01D9E1
:101B2C00032367E0354B1B6803F00073002BF0D1E7
:101B3C007B681B6AB3F5803F08D1304B5B6823F49C
:101B4C0000327B689B682D4913434B602B4B5B68C1
:101B5C0023F474127B68196A7B685B6A0B43274910
:101B6C0013434B60274B01221A60FFF7F3FA3861DD
:101B7C0008E0FFF7EFFA02463B69D31A022B01D9B2
:101B8C00032337E01D4B1B6803F00073002BF0D0D0
:101B9C002FE01C4B00221A60FFF7DCFA386108E0DA
:101BAC00FFF7D8FA02463B69D31A022B01D903235B
:101BBC0020E0124B1B6803F00073002BF0D118E0EF
:101BCC007B68DB69012B01D1012313E00B4B5B68B4
:101BDC00FB60FB6803F480327B681B6A9A4206D177
:101BEC00FB6803F470127B685B6A9A4201D0012394
:101BFC0000E0002318461837BD4680BD0010024097
:101C0C00007000406000424280B584B000AF786044
:101C1C0039607B68002B01D10123D0E06A4B1B6833
:101C2C0003F007033A689A4210D9674B1B6823F0FC
:101C3C00070265493B6813430B60634B1B6803F059
:101C4C0007033A689A4201D00123B8E07B681B680D
:101C5C0003F00203002B20D07B681B6803F0040305
:101C6C00002B05D0594B5B68584A43F4E063536032
:101C7C007B681B6803F00803002B05D0534B5B6893
:101C8C00524A43F460535360504B5B6823F0F002AC
:101C9C007B689B684D4913434B607B681B6803F062
:101CAC000103002B40D07B685B68012B07D1474BAD
:101CBC001B6803F40033002B15D101237FE07B68F4
:101CCC005B68022B07D1414B1B6803F00073002BA0
:101CDC0009D1012373E03D4B1B6803F00203002B79
:101CEC0001D101236BE0394B5B6823F003027B6865
:101CFC005B68364913434B60FFF72CFAF8600AE037
:101D0C00FFF728FA0246FB68D31A41F28832934255
:101D1C0001D9032353E02D4B5B6803F00C027B6865
:101D2C005B689B009A42EBD1274B1B6803F00703BF
:101D3C003A689A4210D2244B1B6823F007022249BE
:101D4C003B6813430B60204B1B6803F007033A6896
:101D5C009A4201D0012332E07B681B6803F0040334
:101D6C00002B08D0194B5B6823F4E0627B68DB68BE
:101D7C00164913434B607B681B6803F00803002B68
:101D8C0009D0124B5B6823F460527B681B69DB0043
:101D9C000E4913434B6000F021F802460B4B5B6875
:101DAC001B0903F00F030A49CB5C22FA03F3094A1F
:101DBC001360094B1B681846FFF78AF90023184675
:101DCC001037BD4680BD00BF00200240001002400D
:101DDC0038270008200000202400002090B48AB08E
:101DEC0000AF2A4B3C1D0FCB84E80F0040F20123BF
:101DFC003B800023FB610023BB6100237B6200233B
:101E0C007B6100233B62224B5B68FB61FB6903F047
:101E1C000C03042B02D0082B03D02DE01D4B3B628E
:101E2C002DE0FB699B0C03F00F0307F12802134410
:101E3C0013F8243C7B61FB6903F48033002B13D033
:101E4C00134B5B685B0C03F0010307F1280213448E
:101E5C0013F8283CBB617B690E4A02FB03F2BB6999
:101E6C00B2FBF3F37B6204E07B690B4A02FB03F3E6
:101E7C007B627B6A3B6202E0064B3B6200BF3B6AC3
:101E8C0018462837BD4690BC704700BF282700086D
:101E9C000010024000127A0000093D0080B485B0A9
:101EAC0000AF78600A4B1B680A4AA2FB03235B0A4B
:101EBC007A6802FB03F3FB6000BFFB685A1EFA60F2
:101ECC00002BF9D100BF00BF1437BD4680BC704752
:101EDC0020000020D34D621080B582B000AF786036
:101EEC007B68002B01D1012341E07B6893F83D30E6
:101EFC00DBB2002B06D17B68002283F83C2078688B
:101F0C00FFF74EF87B68022283F83D207B681A6845
:101F1C007B6804331946104600F06AFA7B6801228C
:101F2C0083F846207B68012283F83E207B680122DF
:101F3C0083F83F207B68012283F840207B680122D4
:101F4C0083F841207B68012283F842207B680122C0
:101F5C0083F843207B68012283F844207B680122AC
:101F6C0083F845207B68012283F83D200023184626
:101F7C000837BD4680BD000080B485B000AF7860E6
:101F8C007B6893F83D30DBB2012B01D0012335E0A7
:101F9C007B68022283F83D207B681B68DA687B68CB
:101FAC001B6842F00102DA607B681B68164A934298
:101FBC0009D07B681B68B3F1804F04D07B681B6829
:101FCC00124A934211D17B681B689B6803F007038C
:101FDC00FB60FB68062B10D07B681B681A687B685B
:101FEC001B6842F001021A6007E07B681B681A68E4
:101FFC007B681B6842F001021A60002318461437F4
:10200C00BD4680BC704700BF002C0140000400405E
:10201C0080B582B000AF78607B681B681B6903F0E9
:10202C000203022B22D17B681B68DB6803F00203DE
:10203C00022B1BD17B681B686FF002021A617B6854
:10204C0001221A777B681B689B6903F00303002B42
:10205C0003D0786800F0B1F905E0786800F0A4F9D5
:10206C00786800F0B3F97B6800221A777B681B68EC
:10207C001B6903F00403042B22D17B681B68DB680B
:10208C0003F00403042B1BD17B681B686FF0040264
:10209C001A617B6802221A777B681B689B6903F4C0
:1020AC004073002B03D0786800F087F905E078685E
:1020BC0000F07AF9786800F089F97B6800221A77C9
:1020CC007B681B681B6903F00803082B22D17B6813
:1020DC001B68DB6803F00803082B1BD17B681B68AB
:1020EC006FF008021A617B6804221A777B681B6800
:1020FC00DB6903F00303002B03D0786800F05DF973
:10210C0005E0786800F050F9786800F05FF97B68BA
:10211C0000221A777B681B681B6903F01003102BD5
:10212C0022D17B681B68DB6803F01003102B1BD1DA
:10213C007B681B686FF010021A617B6808221A77A3
:10214C007B681B68DB6903F44073002B03D0786851
:10215C0000F033F905E0786800F026F9786800F0B3
:10216C0035F97B6800221A777B681B681B6903F0C2
:10217C000103012B0ED17B681B68DB6803F00103A4
:10218C00012B07D17B681B686FF001021A6178681C
:10219C00FEF71CFE7B681B681B6903F08003802B19
:1021AC000ED17B681B68DB6803F08003802B07D1A2
:1021BC007B681B686FF080021A61786800F067FA20
:1021CC007B681B681B6903F04003402B0ED17B68B6
:1021DC001B68DB6803F04003402B07D17B681B684E
:1021EC006FF040021A61786800F0F9F87B681B68A0
:1021FC001B6903F02003202B0ED17B681B68DB6866
:10220C0003F02003202B07D17B681B686FF02002A2
:10221C001A61786800F032FA00BF0837BD4680BDFD
:10222C0080B584B000AF786039607B6893F83C303F
:10223C00012B01D10223B3E07B68012283F83C20FF
:10224C007B68022283F83D207B681B689B68FB60DF
:10225C00FB6823F07703FB60FB6823F47F43FB6090
:10226C007B681B68FA689A603B681B68B3F5005F73
:10227C003ED0B3F5005F00F28780B3F5805F00F0CD
:10228C008580B3F5805F7FD8702B1AD0702B7BD8EC
:10229C00602B50D0602B77D8502B3CD0502B73D860
:1022AC00402B58D0402B6FD8302B64D0302B6BD8B0
:1022BC00202B60D0202B67D8002B5CD0102B5AD051
:1022CC0062E07B6818683B6899683B685A683B68B1
:1022DC00DB6800F05CF97B681B689B68FB60FB6843
:1022EC0043F07703FB607B681B68FA689A604EE0EA
:1022FC007B6818683B6899683B685A683B68DB6880
:10230C0000F045F97B681B689A687B681B6842F48F
:10231C0080429A603BE07B6818683B6859683B6870
:10232C00DB681A4600F0BCF87B681B685021184625
:10233C0000F013F92BE07B6818683B6859683B6820
:10234C00DB681A4600F0DAF87B681B6860211846D7
:10235C0000F003F91BE07B6818683B6859683B6820
:10236C00DB681A4600F09CF87B681B684021184615
:10237C0000F0F3F80BE07B681A683B681B681946A1
:10238C00104600F0EAF802E000BF00E000BF7B68F6
:10239C00012283F83D207B68002283F83C20002337
:1023AC0018461037BD4680BD80B483B000AF78604E
:1023BC0000BF0C37BD4680BC704780B483B000AF03
:1023CC00786000BF0C37BD4680BC704780B483B0CA
:1023DC0000AF786000BF0C37BD4680BC704780B43E
:1023EC0083B000AF786000BF0C37BD4680BC70472F
:1023FC0080B485B000AF786039607B681B68FB6087
:10240C007B68254A934207D07B68B3F1804F03D099
:10241C007B68224A934208D1FB6823F07003FB606F
:10242C003B685B68FA681343FB607B681A4A93420B
:10243C0007D07B68B3F1804F03D07B68174A934277
:10244C0008D1FB6823F44073FB603B68DB68FA68D7
:10245C001343FB60FB6823F080023B685B6913430A
:10246C00FB607B68FA681A603B689A687B68DA6282
:10247C003B681A687B689A627B68074A934203D16F
:10248C003B681A697B681A637B6801225A6100BF3A
:10249C001437BD4680BC7047002C0140000400403E
:1024AC0080B487B000AFF860B9607A60FB681B6AD3
:1024BC007B61FB681B6A23F00102FB681A62FB68F4
:1024CC009B693B613B6923F0F0033B617B681B011B
:1024DC003A6913433B617B6923F00A037B617A6998
:1024EC00BB6813437B61FB683A699A61FB687A6944
:1024FC001A6200BF1C37BD4680BC704780B487B0E1
:10250C0000AFF860B9607A60FB681B6A23F01002B8
:10251C00FB681A62FB689B697B61FB681B6A3B6109
:10252C007B6923F470437B617B681B037A691343DB
:10253C007B613B6923F0A0033B61BB681B013A69DB
:10254C0013433B61FB687A699A61FB683A691A62CA
:10255C0000BF1C37BD4680BC704780B485B000AF4F
:10256C00786039607B689B68FB60FB6823F07003C4
:10257C00FB603A68FB68134343F00703FB607B681E
:10258C00FA689A6000BF1437BD4680BC704780B4AF
:10259C0087B000AFF860B9607A603B60FB689B68FD
:1025AC007B617B6923F47F437B613B681A027B6808
:1025BC001A43BB6813437A6913437B61FB687A69DE
:1025CC009A6000BF1C37BD4680BC704780B485B094
:1025DC0000AF786039607B6893F83C30012B01D1F7
:1025EC00022341E07B68012283F83C207B680222B5
:1025FC0083F83D207B681B685B68FB607B681B680D
:10260C009B68BB60FB6823F07003FB603B681B6836
:10261C00FA681343FB607B681B68FA685A607B6836
:10262C001B68144A934209D07B681B68B3F1804F36
:10263C0004D07B681B68104A93420CD1BB6823F012
:10264C008003BB603B685B68BA681343BB607B6804
:10265C001B68BA689A607B68012283F83D207B680E
:10266C00002283F83C20002318461437BD4680BC5A
:10267C00704700BF002C01400004004080B483B0C0
:10268C0000AF786000BF0C37BD4680BC704780B48B
:10269C0083B000AF786000BF0C37BD4680BC70477C
:1026AC0070B500260C4D0D4C641BA410A64209D12C
:1026BC0000F022F800260A4D0A4C641BA410A64216
:1026CC0005D170BD55F8043B98470136EEE755F837
:1026DC00043B98470136F2E74827000848270008D2
:1026EC00482700084C27000803460244934200D1B7
:1026FC00704703F8011BF9E7F8B500BFF8BC08BC3C
:10270C009E467047F8B500BFF8BC08BC9E467047A3
:10271C00C0F9A4B0999282F88090000002030405DD
:10272C00060708090A0B0C0D0E0F10100000000014
:0C273C0000000000010203040607080969
:042748003101000853
:04274C000D01000873
:1027500001000000320000006400000003000000DF
:1027600002000000050000006400000001000000FD
:0C2770000024F400100000000100000034
:04000005080010657A
:00000001FF
